:040000008031102813
:100008007E14803120007F08E500823150222000D4
:100018006508FF007E1009008031122866308400D0
:10002800003085000A3089317B218031A830840076
:1000380000308500353089317B21803121308400C2
:10004800013085000C3089317B217E1020008931F8
:10005800D12920004203031D452840081F39003AD2
:10006800031D45282100B717033020004106031D52
:1000780043280130D60056082100D8004528210021
:10008800D80120004208031D080040081F39023A21
:10009800031D080044080F39003A031908004408F2
:1000A8000F39D600023056020318080020306C06BB
:1000B800031D08002100B7172000C41B712844083D
:1000C8000F390907BE3E86008701403FDB00413FEC
:1000D800DC0044080F39CA3E7E2844080F39090756
:1000E800BA3E86008701403FDB00413FDC00440800
:1000F8000F39CC3E860087010108D6005608DA0081
:100108005A189028FB30D600FF30D7005B085605F8
:10011800DB005C085705952804305B04DB000030E1
:100128005C04DC00C41BA32844080F390907BE3E41
:10013800860087015B08C03F5C08C13FAD284408C2
:100148000F390907BA3E860087015B08C03F5C0883
:10015800C13F03304106031DCE285B0886005C08BA
:100168008700811FC328C41BBD2844080F39CA3E15
:10017800C02844080F39CC3E8600870181145B08EB
:1001880086005C08870001155B0886005C0887000C
:100198008117080004305B06DB0000305C06DC00D9
:1001A8005B0886005C088700811FF7287F30D6002F
:1001B8005B0886005C088700560881055B08860096
:1001C8005C08870001170030D1000530D0005C08BA
:1001D800D3005B08D2000230D4000030D5008C3147
:1001E8002C248031FD2820005B0886005C088700ED
:1001F8000117043020005B06DB0000305C06DC00E1
:10020800DA180C295B0886005C088700811F3029F2
:10021800C41B122944080F39CA3E152944080F394E
:10022800CC3E8600870181103B30D6005B088600F3
:100238005C088700560881050030D1000530D000E1
:100248005C08D3005B08D2000230D4000030D5002F
:100258008C312C24803139293B302000D6005B08B2
:1002680086005C08870056088105200044080F397D
:10027800983ED600D7010E30D73D5608D80057080B
:10028800D900FE30D600580886005908870056085D
:1002980081050800203020006C02031C08003D0086
:1002A8008E1C622901308A310F220800200067085D
:1002B8002100C500200066082100C400200067084E
:1002C80021004506031D6C2920006608210044060C
:1002D800031D5A294209E8004309E900E80A0319FD
:1002E800E90A44086807ED004508693DEE00EE1F7D
:1002F80090294209E8004309E900E80A0319E90AD4
:1003080044086807EA004508693DEB006A08FF3EB3
:10031800ED007F306B3DEE006E08803AE8009330C8
:100328006802031D992989306D02031CA229210046
:100338004408783EC200EC30453DC30021002F0838
:1003480030040319AD292F08860030088700811B67
:10035800322A0030DD00DE000830DF000030E00027
:10036800A0308A315722813101308A310F22813100
:10037800013A031DD62921003408031DD829B401E8
:10038800B40A3308E8006808A2000130E8006808E9
:10039800B30728303306031DD8290430E80068085D
:1003A800B300D8292100B401EC01EF0108306F0235
:1003B8000318F6296F08A03E860087016F08213EC2
:1003C800840001308500000801060319EE29EC01BC
:1003D800EC0AF6290130E8006808EF0708306F02D8
:1003E800031CDE29460847040319092A6E08803AC7
:1003F800E8004708803A6802031D042A46086D028F
:10040800031C092A2100EC01EC0A21006C03031DDE
:10041800322AA03086000030870021308400013065
:1004280085000830E80016001A00E80B172ADD01DD
:10043800DD0AA030DE000030DF000830E800680880
:10044800E00001308631D426813121005E08B000F9
:100458005D08AF004508C3004408C20031083204F3
:1004680003193C2A3108860032088700811B0800DE
:100478008931B92181312100DD012030DE000130D0
:10048800DF00E001E00A01308631D42621005E0851
:10049800B2005D08B100080020006C03031D5F2A4C
:1004A8003D008E1A5F2A90011214121602302000A5
:1004B800E2006208EC003D001019121D6C2AFB30A6
:1004C8002000E20062083D0090058A31EE22823168
:1004D8003D008E1C722A2000121108001018121CF0
:1004E800842A84318B2482312100121504302000A3
:1004F800E2006208EC00FE30E20062083D00900570
:10050800101A121E8A2A8A318F2282313D00101F4A
:10051800B42A121F9F2A73302000D0000030D10067
:100528000030D2000030D3000130D4000030D500B4
:100538008C312C248231BF302000E20062083D005B
:1005480090058A3124228231210054080319AE2AE9
:100558000130D4025408031DB42A8E319A26823100
:100568003D00901A921EBB2A8731CF2782313D0069
:100578009018921CD12AFF302000D0007F30D10083
:100588000030D2000030D3000130D4000030D50054
:100598008C312C2482313D009301043020006C0200
:1005A8000318D82A121108003D00921D2F2B200095
:1005B800E4010430640203182F2B3D00901D2F2BFB
:1005C8000F082000E2006208ED006D0CE200E20C6A
:1005D800620C0F39E30063082100D600F7302000D1
:1005E800E20062083D00900520006D19FF2A2100F5
:1005F8005608CA3E022B21005608CC3E86008701C9
:10060800010801392000E2000130E2060108620613
:10061800FE396206810021005608031D172B8D3113
:100628001F258231262B72302000D0000030D100E7
:100638006D30D2000030D3000030D400D5008C31AA
:100648002C24823101302000E2006208E4070430E3
:100658006402031CE12A2000121108002100121173
:100668003D009301900198010E302100DF00993080
:10067800DE00E0016008031D512B5E0886005F085C
:10068800870081010130DE070030DF3D0130DD00E9
:100698005D08E00760080319412B16303D00910002
:1006A8009F3097007B3092002100E1010830610201
:1006B8000318772B6108DD000130DD35FF3E031D8F
:1006C800612B5D35203E860087010030C03F003039
:1006D800C13FC23FC33F0130DD005D08E10708307C
:1006E8006102031C5E2B3D000E1796010E120E13BD
:1006F800F7302100DD005D083D0090052100B701BD
:10070800AA01AB01AC013D0090197C2B01302100FE
:10071800DD005D08D2000130DD005D08D100D001A8
:10072800CF01D701E101023061020318BB2B61350B
:10073800BA3E860087010030C03FC13F6135BE3EEA
:10074800860087010030C03FC13F6108CC3E86006B
:10075800870181016108CA3E860087018101013055
:10076800DD005D08E10702306102031C9B2B283085
:10077800BA000030BB0016303D0098000030200061
:10078800A3004030A2000830A10004302100DD00A1
:100798005D082000A000A017EF0100302200AC0087
:1007A8000030AB000030AA000030A9002100CE01C3
:1007B8002000EC01080020006B0886008701413FFB
:1007C800F5007508F200F301730821002C02031DDF
:1007D800EF2B72082B020318F52B2B08F200720876
:1007E800F5007508F200F3017208AB027308AC3B20
:1007F800F401750874020318152C7408483E860025
:1008080087010108F2002808860087017208810024
:100818000130F2007208A8070130F2007208F407EC
:10082800FD2B2B082C040319502C20006808013ECE
:10083800F2000030693DF3007208860073088700F3
:10084800083081004830F2000030F3006808860064
:100858006908870042317208C03F7308C13F6B08BE
:1008680086008701011B442C6808860069088700F8
:1008780048308100680886006908870081170800E9
:1008880068088600690887000830810068088600C3
:10089800690887008117080020006808013EF200F7
:1008A8000030693DF300720886007308870008303D
:1008B80081004030F2000030F300680886006908C3
:1008C800870042317208C03F7308C13F680886003C
:1008D8006908870004308100680886006908870075
:1008E800811721002D082E040319832C0530A83EFA
:1008F80086008701413F8A00403F0A008431210079
:10090800AA135308031D08008E319A2608002100F7
:1009180012113D009301900198010E30F2009930B8
:10092800F100F3017308031DA92C710886007208F1
:10093800870081010130F1070030F23D0130F000FD
:100948007008F30773080319992C16303D009100BD
:100958009F3097007B309200F4010830740203182E
:10096800CE2C7408F0000130F035FF3E031DB82C82
:100978007035203E860087010030C03F0030C13FFF
:10098800C23FC33F0130F0007008F407083074021A
:10099800031CB52C3D000E1796010E120E13F730EE
:1009A800F000700890052100B701AA01AB01AC0165
:1009B8003D009019D32C0130F00070082100D200BE
:1009C8000130F0007008D100D001CF01D701F40147
:1009D800023074020318102D7435BA3E8600870160
:1009E8000030C03FC13F7435BE3E860087010030ED
:1009F800C03FC13F7408CC3E86008701810174085E
:100A0800CA3E8600870181010130F0007008F407B2
:100A180002307402031CF02C28302100BA00003088
:100A2800BB0016303D00980000302000A300403085
:100A3800A2000830A1000430F0007008A000A01740
:100A4800EF0100302200AC000030AB000030AA00FB
:100A58000030A9002100CE012000EC0108003D0073
:100A68000E122100B71B7B2DAA1F492D0230F5005D
:100A780075082000EA0021004F08031D452D8D311F
:100A880076252100D101D201080020006808013E26
:100A9800F5000030693DF600750886007608870085
:100AA800083081004030F5000030F6006808860004
:100AB8006908870042317508C03F7608C13F680859
:100AC8008600690887000C3081006808860069087C
:100AD8008700811721003A0886003B088700043008
:100AE80081003A0886003B0887008117080020002B
:100AF800C01F922D0130F5007508EA00210050084A
:100B0800031D892D8D31762585312100D101D20132
:100B18005308031D08008E319A2608000230F5009C
:100B280075082000EA006808013EF5000030693DBC
:100B3800F600750886007608870008308100403086
:100B4800F5000030F6006808860069088700423121
:100B58007508C03F7608C13F6808860069088700A5
:100B68000430810068088600690887008117210021
:100B7800D101D2015308031D08008E319A260800BE
:100B8800200040081F39013A031D08004408031DCE
:100B98000800063041060319EC2DF82D6F03031DDC
:100BA800F82D85302100B5009030B6000030B9002E
:100BB8000930E62D00302100B5009030B600003035
:100BC800B9003F30B800C030F4007408B700F82D01
:100BD80020004308213A0319D22D033A0319DE2DC8
:100BE800013A0319F82DF82D2000400E890C03391D
:100BF800013A031D08003F2E8931DF210800DC304F
:100C08002100B5000030B6000030B9000130B8004E
:100C1800C130F4007408B70008008030F40074088C
:100C28002100B70020004308F40074082100DC000C
:100C38005C08F4007408F000200042088931C421DF
:100C48000800DB302100B5000030B6000030B900E4
:100C58000130B8008130F4007408B7000800803013
:100C6800F40074082100B70020004208F40074085A
:100C78002100DB00080020004108013A0319542E26
:100C8800033A0319032E013A0319252E0A3A0319C8
:100C9800002E033A0319112E013A0319332E542E4C
:100CA8000800803020004006031D0800C030F00016
:100CB80070082100B700C72EB8302100B500903069
:100CC800B6000030B9001230B80008002000420811
:100CD800031D9D2E4208F000F101F035F10DD430CE
:100CE800700784009030713D8500003F2100B500F9
:100CF800013FB6003608F1003508F00002307007F1
:100D0800840071080318710A85000008F20072084F
:100D1800B8003608F1003508F00003307007840089
:100D280071080318710A85000008F2007208B900FA
:100D380008002100B7010800033020004202031810
:100D4800C12E4208F000F101F035F10DCA307007EC
:100D580084009030713D8500003F2100B500013FBF
:100D6800B60035088400360885000008F000F10157
:100D78007008B8007108B90008002100B701080020
:100D88002100B701080020004308013A0319602E2A
:100D9800033A03196A2E013A0319A02EC42E08003B
:100DA8002100E5005D080319E12E6535BA3E86008D
:100DB8008701403FE600413FE82E6535BE3E86008C
:100DC8008701403FE600413FE70066086704031DCE
:100DD800F02EDD01DE010800FF305E05E1007F3006
:100DE8005F05E200660886006708870042316108EF
:100DF800C03F6208C13F6608013EE1000030673D20
:100E0800E2006108860062088700600881004030BF
:100E1800E1006608860067088700610881056608A2
:100E280086006708870081156608860067088700BE
:100E380081175D080319372F6535BA3E860087018B
:100E4800403FE100413FE20004306106E30000302A
:100E58006206E4006535BA3E860087016308C03F34
:100E68006408C13F4D2F6535BE3E86008701403F6F
:100E7800E100413FE20004306106E3000030620611
:100E8800E4006535BE3E860087016308C03F6408FC
:100E9800C13F6708DE006608DD0008002100B717BB
:100EA8000E302000D8009930D700D9015908031D09
:100EB8006D2F570886005808870081010130D70731
:100EC8000030D83D0130D6005608D9075908031913
:100ED8005D2F0030F000F1002030F2000030F30008
:100EE80020308A313D2287313D000E172000DA017B
:100EF80002305A020318922F5A08CC3E8600870106
:100F080081015A08CA3E8600870181010130D60056
:100F18005608DA0702305A02031C802F0030F0000E
:100F2800F1000130F2000030F3006E308A313D22CA
:100F380087313D000E1328302100BA000030BB0075
:100F480020302000D6005608EB006B08E800FF3977
:100F5800031D0030E9004208D6005608EF006F086C
:100F6800031DBB2F1030D6005608EC0008000030D7
:100F7800D1000130D0006F30D2000030D3000130F2
:100F8800D4000030D5008C312C2420302000D6002D
:100F98005608EC0008003D00181CF12F20006B08D3
:100FA8008600870180300106031DEF2F21003A08D3
:100FB80086003B08870084300106031DEF2F0C30A4
:100FC800F00020006B0886008701700881006B081C
:100FD8008600870181173D001810DF30F000700887
:100FE8009005080020004808F10071082200A000C0
:060FF8008931AE21080062
:101000008D31F62D8D31F92D8E31312E8D31F92D19
:101010008E31312E8D31DA2D8D31E22D8E31182E1B
:101020008D31E82D8D31E52D8D31FC2D8E310C2E3D
:041030008E31312E9E
:1012F600640080010131890B7C290034F0007008FC
:10130600003A0319872987290800F0007008003A77
:1013160003198E298E290800F0007008003A031977
:101326009529952908002100DD005D08003A03197A
:101336009D299D2908002100DD005D08003A03195A
:10134600A529A52908002100DD005D08003A03193A
:10135600AD29AD2908002200A01CB529023089312B
:101366008821080002308931812108002200A01C52
:10137600C029023089319E21080002308931962128
:101386000800F3007308031D08007008F100F2015D
:1013960071082100C6007208C700080000308B31B2
:1013A6000E2389318331322389318A317222893180
:1013B60081314E218931DB294830F0007008210047
:1013C600A8000030AC000830AB000730AE00F630A5
:1013D600AD00AA170800F000F52921000E1523001C
:1013E6008E0108007008003A0319FD29013A031915
:1013F600F029FD2908002100DD00052A0E1523002D
:101406008E01080021005D08003A03190E2A013AF0
:101416000319012A0E2A08002100DD00192A2000DE
:101426000E0C890C013908000030080021005D0807
:10143600003A0319172A013A0319122A222A003000
:10144600080001302200A9070030AA3D0030AB3D5C
:101456000030AC3D21005708031D08000130F000A4
:101466007008CE074E08031D0800FF30F000700814
:10147600CE000800F5007508F4007408F600013087
:10148600F2020030F33B720A0319730A03190800CB
:101496007008F40076088600870174088100013020
:1014A600F4007408F607422A2100E3006308E1000D
:1014B6006108E2000130DF020030E03B5F0A0319F9
:1014C600600A031908005D08E100620886008701CA
:1014D600610881000130E1006108E2075D2A200011
:1014E6006C08031D08003D008E0192011630910024
:1014F6009F3097007B309200210012150B178B1737
:101506003D008E19882A8E15832A01302100DD00C0
:101516005D082000EC0008003D001215EF302000A9
:10152600D60056083D0090058E1401302000D600E6
:1015360056082100D700CE0175302000D0000030BB
:10154600D1000030D2000030D3000030D400D500E6
:101556008C312C240800FC00771DB62AF0017C088B
:101566008B319F238A31F71CBD2AF001F00A7C08D3
:101576008B319F237C08983EF800F9010E30F93D27
:101586007808FA007908FB007A0886007B0887004D
:10159600770881000800F100E22AFC30210099005A
:1015A600903027009B00013089318F218A3102302B
:1015B60089318F218A3101308931EE210800710885
:1015C600003A0319D02A013A0319ED2A033A0319FE
:1015D600ED2AED2A08002100D70174302000D00042
:1015E6000030D1000030D2000030D3000030D400EB
:1015F600D5008C312C248A313D008E101211101D1D
:101606000B2BFB302000D60056083D009005022B20
:101616002100CE0108002100DE00222BFC309900BB
:10162600903027009B0001308931A6218B31023092
:101636008931A6218B3101308931FE210800210034
:101646005E08003A0319112B013A03192E2B033AAF
:1016560003192E2B2E2B0800023020006A06031DCC
:10166600372B8331DF2308002000EA0121005508CB
:10167600031D632B20006808013EF6000030693D1B
:10168600F70076088600770887000830810040302A
:10169600F6000030F70068088600690887004231C6
:1016A6007608C03F7708C13F68088600690887004A
:1016B6000C308100680886006908870081170800D9
:1016C6002100D50108002100AF01B0010430FD0062
:1016D6007D08B300B401F430C6000130C700200015
:1016E600670821004306031D7C2B200066082100A5
:1016F60042060319872B200067082100C30020003B
:1017060066082100C200722B1E30FD007D08F7001E
:1017160001308A31AE228B31F0012030F1000130E8
:10172600F200F301F30A01308F318327710821009B
:10173600B2007008B1000800F5002030F100710811
:10174600F6007008F1000130F135890BA72B7508FA
:10175600F2000130F235FF3E031DAD2B72357107E5
:10176600F3000130F335FF3E031DB52B7335F4004E
:101776007408F60776088600870181137008031D32
:10178600CD2B7535BE3E860087017608C03F0030FA
:10179600C13FD52B7535BA3E860087017608C03F16
:1017A6000030C13F76088600870101137608043EA3
:1017B60086008701011708003D008E1C202C013091
:1017C600893181210800210048034904031DF02BBB
:1017D6000130893188218B31262C4B302100480677
:1017E6004904031DFB2B0130893181218B31262CC5
:1017F6000030210049029730192C21004803490482
:10180600031D0A2C0130893188218B31262C323078
:10181600210048064904031D152C01308931812118
:101826008B31262C033021004902B73003194802B8
:10183600031C262CC801C901262C20006C08203A5E
:101846000319E62B002C01302100C8070030C93DE2
:101856000800532C8B31DF238C312000660A7F3041
:101866000319670603193C2C0130E6070030E73DF3
:101876000800E601E70108008B31DF238C310130D7
:101886008A31CE2208008B31DF238C3102308A3137
:10189600CE2208008B31662308008531C425080056
:1018A60020005108003A03195C2C7F3A0319762C64
:1018B6007B2C5008013A03194D2C033A03197B2C53
:1018C600013A0319502C063A03197B2C773A03196F
:1018D6007B2C013A03192D2C073A0319462C013AA1
:1018E60003193F2C7B2C5008FF3A03197B2C7B2CC9
:1018F60008002100DA01D301D001CF01D501200073
:10190600EA017F30DE0021003A0886003B088700A6
:1019160020005E088105043021003A06BA00003036
:101926003B06BB007F302000DE0021003A0886001F
:101936003B08870020005E088105043021003A0636
:10194600BA0000303B06BB007F302000DE0068088E
:101956008600690887005E0881052100B701B80185
:10196600B901AA01AB01AC018D31D2258C31003011
:101976002000D1000330D0000030D2000030D30068
:101986000030D400D5008C312C248C3185313325A0
:1019960008002000C801C901062D2100B717210043
:1019A6005803031D122D2000C814122D2100B7174D
:1019B600122D2100B7172000C41BEB2C44080F3949
:1019C6000907BE3E86008701403FF100413FF42CE7
:1019D60044080F390907BA3E86008701403FF100E7
:1019E600413FF2007108860072088700811F122DA0
:1019F6007108860072088700011D122D0130F00063
:101A06007008C800122D40081F39003A0319D02C5F
:101A1600013A0319D92C033A0319DC2C122D2100A3
:101A2600B71F08004830B5000030B6003714023042
:101A3600F0007008B80008002D302000DF005F08B5
:101A46002100D40020006D08FD39031D6B2D6D3675
:101A56003F39DF000130DF35FF3E031D2E2D5F3598
:101A6600203EE0006008EB006B08E800FF39031D2C
:101A76000030E90004306806E80000306906E90035
:101A86006B0886008701010C890C0F390D3A031D7E
:101A9600682D40308600870120006B08023E8400D6
:101AA6008501003FDF00013FE0005F088400600819
:101AB60085000830E10061080319652D12001E003B
:101AC600E10B612D8C317C2408008B312F2308001B
:101AD600FD3020006D05DF0004305F06031D0800A1
:101AE6008F310C2708002100D001CF0102302000E1
:101AF6006A06031DA32D6808013EF3000030693D08
:101B0600F4007308860074088700083081004830A6
:101B1600F3000030F4006808860069088700423147
:101B26007308C03F7408C13F6808860069088700CB
:101B36004830810068088600690887008117080018
:101B46002100390820004702031DAD2D2100380869
:101B5600200046020318B62D47082100B9002000D0
:101B660046082100B8008E3132264830F300003096
:101B7600F40021003A0886003B08870042317308CA
:101B8600C03F7408C13F3A0886003B0887004830CA
:101B960081003A0886003B0887008117080020006C
:101BA600400E890C0339003A031D0800262E210039
:101BB600B71708302000DD005D08EC00080086310C
:101BC600552608008731522708006F302100B500DE
:101BD6000030B600371401302000DD005D0821001A
:101BE600B800B71708008C31CC24080080312D20AE
:101BF6000800200044086E3E2100B5000030B60003
:101C0600371401302000DD005D082100B800B71749
:101C160008002100B71720004208DD0044086E3E88
:101C2600860087015D08810008000030D10002307F
:101C3600D0000030D2000030D3000030D400D500F0
:101C46008C312C2408002000410884000D30040249
:101C56000318080088310435003E82000800083069
:101C6600F0007008F2000030210039020830031934
:101C7600380203184E2E3808F0007008F2005A0891
:101C8600031D472E01304B2E5A03031D4E2E0230E4
:101C9600F0007008DA007208F000F1017008B8026E
:101CA6007108B93B3A08013EF00000303B3DF100B7
:101CB6007008860071088700720881004830F000BD
:101CC6007008D900371C7D2E962E350884003608FC
:101CD60085000008F0005908860087017008810019
:101CE6000130B5070030B63D0130F0007008D90765
:101CF6000130F202720803190800682E35088400C4
:101D0600360885000008F00059088600870170082B
:101D160081000130B5070030B63D0130F000700893
:101D2600D9070130F202720803190800812E21003A
:101D36005208031D08000130F0007008D200510857
:101D4600031D08000130F0007008D10002302000A9
:101D56006A06031DC12E21003A0886003B0887004B
:101D6600413181013A0886003B08870048308100EE
:101D76003A0886003B0887008117080020006A039E
:101D8600031D08002100D5010830F00020006B0A71
:101D960086008701700881004030F0000030F100B5
:101DA6006B08023E860087017008C03F7108C13F7C
:101DB6000430F0006B0886008701700881006B080C
:101DC6008600870181170130F00070082100D500D8
:101DD60020006808013EF0000030693DF1007008FF
:101DE600860071088700083081004030F00000301E
:101DF600F100680886006908870042317008C03F14
:101E06007108C13F68088600690887008030810034
:101E1600080021003A0886003B0887000030011BB5
:101E26000130F50004303A06BA0000303B06BB002C
:101E3600083020006C06031D2E2F42087F393D0016
:101E4600960016080319292F10302A2F0430F300A4
:101E560073082000EC006A03031D6E2F4830F30060
:101E66000030F40021003A0886003B088700423122
:101E76007308C03F7408C13F8E3132268F3102305D
:101E860021005A06031D532F3A0886003B08870097
:101E9600043081003A0886003B0887008117080055
:101EA6007508031D622F3A0886003B0887004830F4
:101EB60081003A0886003B088700811708003A0827
:101EC60086003B088700083081003A0886003B08F8
:101ED6008700811708002100AA1F802F2D082E04D5
:101EE60003197E2F0530A83E86008701413F8A00F0
:101EF600403F0A008F312100AA132000EA010800A2
:101F0600F800700803198F2F7835BA3E86008701CE
:101F1600403FF900413F962F7835BE3E8600870147
:101F2600403FF900413FFA0079087A04031D9E2FCD
:101F3600F001F1010800FF307105F4007F307205F1
:101F4600F500790886007A08870042317408C03F98
:101F56007508C13F7908013EF40000307A3DF5006E
:101F66007408860075088700730881004030F40005
:101F7600790886007A088700740881057908860042
:101F86007A0887008115790886007A088700811704
:101F960070080319E52F7835BA3E86008701403F61
:101FA600F400413FF50004307406F6000030750673
:101FB600F7007835BA3E860087017608C03F770875
:101FC600C13FFB2F7835BE3E86008701403FF400B7
:101FD600413FF50004307406F60000307506F70040
:101FE6007835BE3E860087017608C03F7708C13F38
:101FF6007A08F1007908F000080005340134093444
:102006000634A1340134053407341934E034293454
:10201600E7341534003425340134753401349534ED
:1020260008348134023495340134753408348134EB
:1020360003349534053475340134053408341934C1
:10204600013429340534913402349534013475341D
:102056000334913403349534063475340834153416
:1020660000342534653405340734193400342934F2
:10207600653481340034C034343403344D34003490
:102086006934003463340034723400346F340034FD
:1020960063340034683400346934003470340034F6
:1020A600203400345434003465340034633400344E
:1020B600683400346E3400346F3400346C340034C9
:1020C6006F340034673400347934003420340034FB
:1020D600493400346E340034633400342E34003412
:1020E6000934023429340034013401340034C03454
:1020F60032340934043400340034023403340134F5
:1021060001340034093421341134013400340134EB
:1021160022343F3400340734053481340334083420
:1021260000340134073405340134033408340034F0
:1021360001341C3403344B340034653400347934B0
:102146000034623400346F34003461340034723445
:1021560000346434003420340034443400346534AC
:1021660000346D3400346F340034123401340034DA
:1021760002340034003400340834D834043455347E
:102186000034013400340134023400340134D034D4
:1021960090343F3490349C349034043403340934FE
:0621A60004347334903490
:020000040001F9
:04000E00A4CFCFDFCD
:00000001FF
